{
  "transactions": [
    {
      "hash": "0xeabb19b825dd9b099edc115f80d6fac5ebeb2009b82e108eba2da0e3ee7abea7",
      "transactionType": "CALL",
      "contractName": null,
      "contractAddress": "0x04ab212043c1db35389ce16821bc947e608154ac",
      "function": "maliciousMint(uint256)",
      "arguments": [
        "2000000000000000000000"
      ],
      "transaction": {
        "from": "0x8995b7abd8924fe2089e7a184ccfaad94c576a2f",
        "to": "0x04ab212043c1db35389ce16821bc947e608154ac",
        "gas": "0xade5",
        "value": "0x0",
        "input": "0x7123334500000000000000000000000000000000000000000000006c6b935b8bbd400000",
        "nonce": "0x8",
        "chainId": "0x88bb0"
      },
      "additionalContracts": [],
      "isFixedGasLimit": false
    }
  ],
  "receipts": [
    {
      "status": "0x1",
      "cumulativeGasUsed": "0x41a197",
      "logs": [],
      "logsBloom": "0x00000000000000000000000000000000000000000000000000000000000000000000000000000000000000000000000000000000000000000000000000000000000000000000000000000000000000000000000000000000000000000000000000000000000000000000000000000000000000000000000000000000000000000000000000000000000000000000000000000000000000000000000000000000000000000000000000000000000000000000000000000000000000000000000000000000000000000000000000000000000000000000000000000000000000000000000000000000000000000000000000000000000000000000000000000000",
      "type": "0x2",
      "transactionHash": "0xeabb19b825dd9b099edc115f80d6fac5ebeb2009b82e108eba2da0e3ee7abea7",
      "transactionIndex": "0xd",
      "blockHash": "0x6cbbfa433d6cb499f6cce98b5abb013394d85a5219b096d41ef440880a59daa6",
      "blockNumber": "0x2390fa",
      "gasUsed": "0x7de6",
      "effectiveGasPrice": "0x42d2d60d",
      "from": "0x8995b7abd8924fe2089e7a184ccfaad94c576a2f",
      "to": "0x04ab212043c1db35389ce16821bc947e608154ac",
      "contractAddress": null
    }
  ],
  "libraries": [],
  "pending": [],
  "returns": {},
  "timestamp": 1772364292355,
  "chain": 560048,
  "commit": "b43cf4e"
}